:100000000C9462000C948A000C948A000C948A0070
:100010000C948A000C948A000C948A000C948A0038
:100020000C948A000C948A000C948A000C948A0028
:100030000C948A000C948A000C948A000C948A0018
:100040000C9402040C948A000C94D0030C94AA0320
:100050000C948A000C948A000C948A000C948A00F8
:100060000C948A000C948A000000000023002600F3
:10007000290000000000240027002A0000000000E2
:10008000250028002B0004040404040404040202D4
:100090000202020203030303030301020408102007
:1000A0004080010204081020010204081020000012
:1000B0000008000201000003040700000000000027
:1000C0000000910411241FBECFEFD8E0DEBFCDBFEA
:1000D00011E0A0E0B1E0E8E9F1E102C005900D9285
:1000E000A634B107D9F721E0A6E4B1E001C01D9222
:1000F000A43FB207E1F710E0C2E6D0E004C02197C8
:10010000FE010E94D206C136D107C9F70E94DA0467
:100110000C94CA080C940000AF92BF92CF92DF9269
:10012000EF92FF920F931F93CF93DF936C017B01AC
:100130008B01040F151FEB015E01AE18BF08C0173D
:10014000D10759F06991D601ED91FC910190F081B0
:10015000E02DC6010995892B79F7C501DF91CF9173
:100160001F910F91FF90EF90DF90CF90BF90AF90D5
:100170000895CF93DF93FC014481558160817181A3
:100180008FE491E00E948C00EC0142E050E068E1D5
:1001900071E08FE491E00E948C008C0F9D1FDF9135
:1001A000CF910895FC01538D448D252F30E0842F8D
:1001B00090E0821B930B541710F0CF96089501978F
:1001C0000895FC01918D828D981761F0A28DAE0F7C
:1001D000BF2FB11D5D968C91928D9F5F9F73928F03
:1001E00090E008958FEF9FEF0895FC01918D828D2F
:1001F000981731F0828DE80FF11D858D90E00895FC
:100200008FEF9FEF0895FC01918D228D892F90E053
:10021000805C9F4F821B91098F73992708958FE40B
:1002200091E00E94030121E0892B09F420E0822F54
:10023000089580E090E0892B29F00E940F01811140
:100240000C9400000895FC01A48DA80FB92FB11DD6
:10025000A35ABF4F2C91848D90E001968F739927FC
:10026000848FA689B7892C93A089B1898C918370DA
:1002700080648C93938D848D981306C00288F389D3
:10028000E02D80818F7D80830895EF92FF920F9300
:100290001F93CF93DF93EC0181E0888F9B8D8C8D32
:1002A00098131AC0E889F989808185FF15C09FB726
:1002B000F894EE89FF896083E889F98980818370E9
:1002C000806480839FBF81E090E0DF91CF911F9198
:1002D0000F91FF90EF900895F62E0B8D10E00F5FB9
:1002E0001F4F0F731127E02E8C8D8E110CC00FB68F
:1002F00007FCFACFE889F989808185FFF5CFCE0127
:100300000E942301F1CFEB8DEC0FFD2FF11DE35A7D
:10031000FF4FF0829FB7F8940B8FEA89FB898081A9
:100320008062CFCFCF93DF93EC01888D8823B9F023
:10033000AA89BB89E889F9898C9185FD03C08081F0
:1003400086FD0DC00FB607FCF7CF8C9185FFF2CF6D
:10035000808185FFEDCFCE010E942301E9CFDF919F
:10036000CF91089590E0FC01E255FF4F2491FC01EC
:10037000E656FF4F3491FC01EA57FF4FE491EE231C
:10038000C9F0222339F0233001F1A8F4213019F10A
:10039000223029F1F0E0EE0FFF1FE458FF4FA59146
:1003A000B4918FB7F894EC91611126C030953E233B
:1003B0003C938FBF08952730A9F02830C9F024302E
:1003C00049F7809180008F7D03C0809180008F77F6
:1003D00080938000DFCF84B58F7784BDDBCF84B579
:1003E0008F7DFBCF8091B0008F778093B000D2CF0C
:1003F0008091B0008F7DF9CF3E2BDACFCF93DF9382
:1004000090E0FC01E656FF4F24918A579F4FFC0174
:1004100084918823D1F090E0880F991FFC01EE5859
:10042000FF4FA591B491FC01E458FF4FC591D491C1
:1004300061110EC09FB7F8948C91E22FE0958E2346
:100440008C932881E223E8839FBFDF91CF910895A9
:100450008FB7F894EC91E22BEC938FBFF6CF3FB7B8
:10046000F89480914B0190914C01A0914D01B09175
:100470004E0126B5A89B05C02F3F19F00196A11D7E
:10048000B11D3FBFBA2FA92F982F8827BC01CD01DE
:10049000620F711D811D911D42E0660F771F881F3D
:1004A000991F4A95D1F708958F929F92AF92BF926C
:1004B000CF92DF92EF92FF924B015C010E942F02DC
:1004C0006B017C010E942F026C197D098E099F0926
:1004D000683E734081059105A8F321E0821A9108D6
:1004E000A108B10888EEC80E83E0D81EE11CF11CFB
:1004F00081149104A104B10429F7FF90EF90DF90DB
:10050000CF90BF90AF909F908F9008950F931F93BF
:10051000CF93C82F8B0161E00E94B20128EE33E037
:10052000D8010E94CB0624EB30E040E050E00E946E
:10053000440628513C4F4F4F5F4F220F331F220F6D
:10054000331F25503109C9010197F1F760E08C2F65
:100550000E94B2016AE070E080E090E0CF911F91CC
:100560000F910C945402CF93DF93EC018881998111
:10057000009711F00E947407198218821D821C8254
:100580001B821A82DF91CF910895FC0180819181B5
:10059000009711F00C94740708950F931F93CF9355
:1005A000DF93EC0188819981009759F02A813B8182
:1005B0002617370730F081E0DF91CF911F910F911F
:1005C00008958B016F5F7F4F0E94FD07009759F0E0
:1005D000998388831B830A832C813D81232B59F7C0
:1005E000FC011082E8CF80E0E7CFCF92DF92EF925C
:1005F000FF920F931F93CF93DF93CDB7DEB728976A
:100600000FB6F894DEBF0FBECDBF7C01CB014AE030
:100610009E012F5F3F4F6901B9010E940F06F6014D
:1006200001900020E9F73197EC19FD09D9F0D701C5
:1006300014960D911C910E0F1F1FB801C7010E9447
:10064000CD02882381F0F701208131818481958159
:10065000B601820F931F0E94C308D70115961C9301
:100660000E93149781E028960FB6F894DEBF0FBE64
:10067000CDBFDF91CF911F910F91FF90EF90DF9051
:10068000CF900895EF92FF920F931F93CF93DF9334
:10069000EC017B018A01BA010E94CD0281110BC0DD
:1006A000CE010E94B302CE01DF91CF911F910F9135
:1006B000FF90EF9008951D830C83B7018881998185
:1006C0000E94C308F0CF0F931F93CF93DF93EC01E9
:1006D00060E088810E94B20183E090E00197F1F729
:1006E00061E088810E94B20183E290E00197F1F716
:1006F00060E088810E94B201898190E0FC01E656A9
:10070000FF4F6491FC01EA57FF4FE491F0E0EE0FD8
:10071000FF1FE859FF4F8591949100E412E42FE008
:1007200030E0462F0E944C0461157105810591054A
:1007300029F06F5F7F4F8F4F9F4F9F702BE330E00B
:1007400040E050E00E949A06C901DF91CF911F91CD
:100750000F9108951F920F920FB60F9211242F93AD
:100760003F934F935F936F937F938F939F93AF9339
:10077000BF93EF93FF938FE491E00E942301FF91D9
:10078000EF91BF91AF919F918F917F916F915F9109
:100790004F913F912F910F900FBE0F901F90189582
:1007A0001F920F920FB60F9211242F938F939F9346
:1007B000EF93FF93E0915F01F09160018081E09100
:1007C0006501F091660182FD1BC0908180916801F6
:1007D0008F5F8F7320916901821741F0E09168016A
:1007E000F0E0E15BFE4F958F80936801FF91EF9100
:1007F0009F918F912F910F900FBE0F901F90189582
:100800008081F4CF1F920F920FB60F9211242F9375
:100810003F938F939F93AF93BF93809147019091A4
:100820004801A0914901B0914A013091460123E06D
:10083000230F2D3758F50196A11DB11D20934601B8
:100840008093470190934801A0934901B0934A01D6
:1008500080914B0190914C01A0914D01B0914E01BE
:100860000196A11DB11D80934B0190934C01A09363
:100870004D01B0934E01BF91AF919F918F913F91E8
:100880002F910F900FBE0F901F90189526E8230F01
:100890000296A11DB11DD2CFCF92DF92EF92FF92AF
:1008A0000F931F93E82FF92F05C00150110921095B
:1008B000310961F1908196239417B9F305C0015075
:1008C00011092109310911F1908196239413F7CF71
:1008D000C12CD12CE12CF12C0AC08FEFC81AD80AF8
:1008E000E80AF80A0C151D052E053F0579F08081F0
:1008F0008623841791F36C2D7D2D8E2D9F2D1F91B6
:100900000F91FF90EF90DF90CF90089560E070E03E
:1009100080E090E01F910F91FF90EF90DF90CF90DB
:100920000895EFE4F1E01382128288EE93E0A0E0F4
:10093000B0E084839583A683B7838AE091E09183B6
:10094000808385EC90E09587848784EC90E097879E
:10095000868780EC90E0918B808B81EC90E0938B8C
:10096000828B82EC90E0958B848B86EC90E0978B69
:10097000868B118E128E138E148E61E084E00E949D
:10098000FE0160E085E00E94FE01EEEEF1E084E011
:10099000808385E0818361E082E00E94FE0160E067
:1009A00083E00E94FE01ECEEF1E082E0808383E0D0
:1009B00081830895CF93DF93CDB7DEB72C970FB621
:1009C000F894DEBF0FBECDBF789484B5826084BD3D
:1009D00084B5816084BD85B5826085BD85B5816043
:1009E00085BD80916E00816080936E0010928100C1
:1009F000809181008260809381008091810081607C
:100A0000809381008091800081608093800080913C
:100A1000B10084608093B1008091B00081608093C8
:100A2000B00080917A00846080937A0080917A008F
:100A3000826080937A0080917A00816080937A004E
:100A400080917A00806880937A001092C100E091D2
:100A50005F01F091600182E08083E0915B01F091A1
:100A60005C011082E0915D01F0915E018FEC80836A
:100A700010926701E0916301F091640186E0808348
:100A8000E0916101F0916201808180618083E09159
:100A90006101F0916201808188608083E091610151
:100AA000F0916201808180688083E0916101F09122
:100AB000620180818F7D808361E089E00E94FE0178
:100AC00061E08AE00E94FE0180E0C82E80E0D82E1E
:100AD0008EEE91E00E9463037C018CEE91E00E9417
:100AE00063038C0184E1E816F1040CF08FC06AE521
:100AF00070E089E090E00E94860264EB70E00E31C5
:100B0000110514F070E060E08AE090E00E94860237
:100B100018861F821A8619861C861B8645E150E0BE
:100B20006BE171E0CE0107960E9442031A8219829E
:100B30001C821B821E821D826F8178856115710562
:100B400031F04B855C85CE0101960E944203B701CE
:100B5000CE0101960E94F502811104C0CE010196DA
:100B60000E94B302CE0101960E94B900CE01019607
:100B70000E94C502CE0107960E94C50218861F82F8
:100B80001A8619861C861B8644E150E061E371E0F9
:100B9000CE0107960E9442031A8219821C821B8290
:100BA0001E821D826F8178856115710531F04B853C
:100BB0005C85CE0101960E944203B801CE010196E8
:100BC0000E94F502811104C0CE0101960E94B30279
:100BD000CE0101960E94B900CE0101960E94C50285
:100BE000CE0107960E94C50262E370E080E090E0CB
:100BF0000E945402C114D10409F46ACF0E940F016B
:100C0000882309F465CF0E94000062CF70E060E0A5
:100C100089E090E00E9486026AE570E075CFBB270C
:100C20004A3031F4992322F4BDE2909581959F4F8B
:100C30000C941B06BB27FB015527AA27880F991F79
:100C4000AA1FA41710F0A41B83955051B9F7A05DFB
:100C5000AA3308F0A95DA193009779F7B111B19378
:100C60001192CB010C943406DC01FC01672F7191C9
:100C70007723E1F7329704C07C916D937083629182
:100C8000AE17BF07C8F30895052E97FB1EF4009416
:100C90000E945B0657FD07D00E949A0607FC03D00E
:100CA0004EF40C945B0650954095309521953F4F3E
:100CB0004F4F5F4F089590958095709561957F4F48
:100CC0008F4F9F4F08952F923F924F925F926F9256
:100CD0007F928F929F92AF92BF92CF92DF92EF92CC
:100CE000FF920F931F93CF93DF93CDB7DEB7CA1B4D
:100CF000DB0B0FB6F894DEBF0FBECDBF09942A8878
:100D0000398848885F846E847D848C849B84AA841F
:100D1000B984C884DF80EE80FD800C811B81AA81AC
:100D2000B981CE0FD11D0FB6F894DEBF0FBECDBF77
:100D3000ED010895A1E21A2EAA1BBB1BFD010DC0F7
:100D4000AA1FBB1FEE1FFF1FA217B307E407F5077B
:100D500020F0A21BB30BE40BF50B661F771F881F57
:100D6000991F1A9469F760957095809590959B01ED
:100D7000AC01BD01CF010895A29FB001B39FC00196
:100D8000A39F700D811D1124911DB29F700D811DB7
:100D90001124911D08950E94BC06B7FF0895821B7F
:100DA000930B0895EE0FFF1F0590F491E02D099429
:100DB0000F931F93CF93DF938230910510F482E05D
:100DC00090E0E091F201F091F30130E020E0B0E03A
:100DD000A0E0309799F42115310509F44AC0281B89
:100DE000390B24303105D8F58A819B816115710555
:100DF00089F1FB0193838283FE0111C040815181FF
:100E00000281138148175907E0F04817590799F4F0
:100E1000109761F012960C93129713961C933296CA
:100E2000CF01DF91CF911F910F9108950093F201AF
:100E30001093F301F4CF2115310551F042175307F8
:100E400038F0A901DB019A01BD01DF01F801C1CF32
:100E5000EF01F9CF9093F3018093F201CDCFFE0122
:100E6000E20FF31F81939193225031093983288334
:100E7000D7CF2091F0013091F101232B41F4209143
:100E80000201309103013093F1012093F001209190
:100E90000001309101012115310541F42DB73EB714
:100EA0004091040150910501241B350BE091F001A4
:100EB000F091F101E217F307A0F42E1B3F0B281766
:100EC000390778F0AC014E5F5F4F2417350748F0C3
:100ED0004E0F5F1F5093F1014093F0018193919366
:100EE0009FCFF0E0E0E09CCFCF93DF930097E9F055
:100EF000FC01329713821282A091F201B091F301AA
:100F0000ED0130E020E01097A1F420813181820FC3
:100F1000931F2091F0013091F1012817390709F052
:100F200061C0F093F101E093F001DF91CF9108955A
:100F3000EA01CE17DF07E8F54A815B819E01411582
:100F40005105B1F7E901FB83EA8349915991C40F37
:100F5000D51FEC17FD0761F4808191810296840F03
:100F6000951FE90199838883828193819B838A837A
:100F7000F0E0E0E012968D919C9113970097B9F5FF
:100F80002D913C911197CD010296820F931F2091D4
:100F9000F0013091F1012817390739F6309751F5F2
:100FA0001092F3011092F201B093F101A093F001BD
:100FB000BCCFD383C28340815181840F951FC81752
:100FC000D90761F44E5F5F4F88819981480F591F9F
:100FD000518340838A819B819383828321153105CC
:100FE00009F0B0CFF093F301E093F2019ECFFD0141
:100FF000DC01C0CF13821282D7CFB0E0A0E0E3E0E3
:10100000F8E00C9465068C01009751F4CB010E9426
:10101000D8068C01C801CDB7DEB7E0E10C9481069B
:10102000FC01E60FF71F9C0122503109E217F3077C
:1010300008F49DC0D901CD91DC911197C617D7074F
:1010400098F0C530D10530F3CE0104978617970785
:1010500008F3C61BD70B2297C193D1936D937C9352
:10106000CF010E947407D6CF5B01AC1ABD0A4C01B8
:101070008C0E9D1EA091F201B091F301512C412CD8
:10108000F12CE12C109731F58091F0019091F10154
:101090008815990509F05CC04616570608F058C037
:1010A0008091000190910101009741F48DB79EB7A6
:1010B0004091040150910501841B950BE817F90735
:1010C00008F055C0F093F101E093F001F90171834C
:1010D0006083A0CF8D919C91119712966C9012977E
:1010E00013967C901397A815B90559F56C0142E049
:1010F000C40ED11CCA14DB0420F1AC014A195B09EF
:10110000DA011296159780F06282738251834083D0
:10111000D9016D937C93E114F10471F0D70113961A
:10112000FC93EE93129776CF22968C0F9D1FF901B8
:1011300091838083F301EFCFF093F301E093F20109
:1011400069CF4816590608F42C017D01D3019ACFC6
:10115000CB010E94D8067C01009749F0AE01B8018E
:101160000E94BA08C8010E947407870153CF10E09B
:1011700000E050CFFB01DC0102C001900D92415014
:101180005040D8F70895FB01DC0101900D9200203A
:08119000E1F70895F894FFCF88
:101198000000F40180000000000045018C00D2002E
:1011A80092010301E100F5000D0A0044697374C35C
:1011B800A26E6369612063C3A17073756C613A2084
:1011C8000044697374C3A26E6369612074616D61C0
:0611D8006E686F3A200072
:00000001FF
