:100000000C945D000C9485000C9485000C94850084
:100010000C9485000C9485000C9485000C9485004C
:100020000C9485000C9485000C9485000C9485003C
:100030000C9485000C9485000C9485000C9485002C
:100040000C946A040C9485000C9438040C941204EB
:100050000C9485000C9485000C9485000C9485000C
:100060000C9485000C94850000000008000201003B
:100070000003040700000000000000000000000072
:10008000250028002B0000000000240027002A0083
:10009000040404040404040402020202020203032E
:1000A0000303030301020408102040800102040836
:1000B00010200102040810200C0711241FBECFEFEE
:1000C000D8E0DEBFCDBF11E0A0E0B1E0EEE5F5E1A4
:1000D00002C005900D92A23EB107D9F722E0A2EE30
:1000E000B1E001C01D92AE38B207E1F710E0CDE5F6
:1000F000D0E004C02197FE010E94AC08CC35D107A6
:10010000C9F70E94B4040C94AD0A0C940000AF929D
:10011000BF92CF92DF92EF92FF920F931F93CF93F4
:10012000DF936C017B018B01040F151FEB015E0156
:10013000AE18BF08C017D10759F06991D601ED91EB
:10014000FC910190F081E02DC6010995892B79F78A
:10015000C501DF91CF911F910F91FF90EF90DF903C
:10016000CF90BF90AF900895FC01538D448D252F03
:1001700030E0842F90E0821B930B541710F0CF9641
:10018000089501970895FC01918D828D981761F073
:10019000A28DAE0FBF2FB11D5D968C91928D9F5F8A
:1001A0009F73928F90E008958FEF9FEF08952FB780
:1001B000F8948091E9019091EA01A091EB01B0914E
:1001C000EC012FBF8093F5019093F601A093F70106
:1001D000B093F8018DEE91E00E94C30097FF26C016
:1001E0002FB7F8948091E9019091EA01A091EB0179
:1001F000B091EC012FBF4091F5015091F601609153
:10020000F7017091F801841B950BA60BB70B409179
:10021000F1015091F2016091F3017091F4018417A2
:100220009507A607B707B0F28FEF9FEF0895FC017F
:10023000918D828D981731F0828DE80FF11D858D9B
:1002400090E008958FEF9FEF0895FC01918D228D2E
:10025000892F90E0805C9F4F821B91098F739927B3
:1002600008958DEE91E00E94250121E0892B09F48B
:1002700020E0822F089580E090E0892B29F00E94F1
:10028000310181110C9400000895FC01A48DA80F88
:10029000B92FB11DA35ABF4F2C91848D90E00196C8
:1002A0008F739927848FA689B7892C93A089B189E8
:1002B0008C91837080648C93938D848D981306C089
:1002C0000288F389E02D80818F7D80830895EF92ED
:1002D000FF920F931F93CF93DF93EC0181E0888F00
:1002E0009B8D8C8D98131AC0E889F989808185FFD0
:1002F00015C09FB7F894EE89FF896083E889F98972
:1003000080818370806480839FBF81E090E0DF9173
:10031000CF911F910F91FF90EF900895F62E0B8DC6
:1003200010E00F5F1F4F0F731127E02E8C8D8E1181
:100330000CC00FB607FCFACFE889F989808185FFE8
:10034000F5CFCE010E944501F1CFEB8DEC0FFD2FD3
:10035000F11DE35AFF4FF0829FB7F8940B8FEA89A3
:10036000FB8980818062CFCFCF93DF93EC01888DB2
:100370008823B9F0AA89BB89E889F9898C9185FD20
:1003800003C0808186FD0DC00FB607FCF7CF8C91AE
:1003900085FFF2CF808185FFEDCFCE010E94450120
:1003A000E9CFDF91CF91089590E0FC01E859FF4F2C
:1003B0002491FC01EC55FF4F3491FC01E057FF4FB5
:1003C000E491EE23C9F0222339F0233001F1A8F49F
:1003D000213019F1223029F1F0E0EE0FFF1FE4582F
:1003E000FF4FA591B4918FB7F894EC91611126C09D
:1003F00030953E233C938FBF08952730A9F02830D5
:10040000C9F0243049F7809180008F7D03C080912E
:1004100080008F7780938000DFCF84B58F7784BD95
:10042000DBCF84B58F7DFBCF8091B0008F77809339
:10043000B000D2CF8091B0008F7DF9CF3E2BDACFC4
:100440003FB7F8948091E3019091E401A091E50118
:10045000B091E60126B5A89B05C02F3F19F0019683
:10046000A11DB11D3FBFBA2FA92F982F8827BC010E
:10047000CD01620F711D811D911D42E0660F771F36
:10048000881F991F4A95D1F708958F929F92AF9236
:10049000BF92CF92DF92EF92FF926B017C010E949C
:1004A00020024B015C01C114D104E104F104B9F054
:1004B0000E942002681979098A099B09683E7340E5
:1004C0008105910580F321E0C21AD108E108F10805
:1004D00088EE880E83E0981EA11CB11CE4CFFF902B
:1004E000EF90DF90CF90BF90AF909F908F90089546
:1004F000EF92FF920F931F93CF93DF9392E0E92E39
:10050000F12C0EE111E0E8018881229661E00E9461
:10051000D40181E0CA32D807B9F764E670E080E020
:1005200090E00E944502F80180810E5F1F4F60E05D
:100530000E94D401C017D107B1F764E670E080E0F3
:1005400090E00E944502EA94EF2839F4DF91CF91C0
:100550001F910F91FF90EF900895EE24E394F12CFA
:10056000D0CF8F929F92AF92BF92CF92DF92EF92B5
:10057000FF920F931F93CF93DF936C01F12CE12C2B
:100580004B01770FAA08BB080EE111E0E801888152
:10059000229661E00E94D401C501B4010E94450287
:1005A00081E0CA32D80799F7F80180810E5F1F4FAA
:1005B00060E00E94D401C501B4010E944502C01749
:1005C000D10791F7FFEFEF1AFF0ACE14DF04E1F62F
:1005D000DF91CF911F910F91FF90EF90DF90CF901F
:1005E000BF90AF909F908F900895FC0101900020E4
:1005F000E9F73197AF01481B590BBC018DEE91E033
:100600000C9487008F929F92AF92BF920F931F938B
:10061000CF93DF93CDB7DEB7A1970FB6F894DEBFC7
:100620000FBECDBF19A2423008F44AE08E010F5D23
:100630001F4F842E912CB12CA12CA50194010E9456
:100640007B08E62FB901CA01EA30F4F4E05DD80175
:10065000EE938D01232B242B252B79F790E080E05E
:10066000109719F0CD010E94F502A1960FB6F894EB
:10067000DEBF0FBECDBFDF91CF911F910F91BF9015
:10068000AF909F908F900895E95CE1CFCF92DF9279
:10069000EF92FF92CF93DF936B017C016DE28DEEC1
:1006A00091E00E946701EC0166277727CB016C1966
:1006B0007D098E099F094AE00E9402038C0F9D1F4D
:1006C000DF91CF91FF90EF90DF90CF900895CF937F
:1006D000DF930E94F502EC018AE291E00E94F502AC
:1006E0008C0F9D1FDF91CF910895FC018081918136
:1006F000009711F00C944E0908950F931F93CF9318
:10070000DF93EC0188819981009759F02A813B8120
:100710002617370730F081E0DF91CF911F910F91BD
:1007200008958B016F5F7F4F0E94D709009759F0A2
:10073000998388831B830A832C813D81232B59F75E
:10074000FC011082E8CF80E0E7CFEF92FF920F9399
:100750001F93CF93DF9300D0CDB7DEB78C018DE22E
:1007600091E00E9467038DEE91E00E942501892BA4
:10077000D1F38DEE91E00E942501892B09F448C048
:10078000F80111821082138212821582148270E0A5
:1007900060E0C8010E947D03F80120813181811150
:1007A0002FC02115310519F0C9010E944E09F80129
:1007B0001182108215821482138212820E94D70045
:1007C00097FD26C089831A82F801E480F580FFEF47
:1007D000EF1AFF0AB701C8010E947D03882371F355
:1007E000F8012081318184819581BE016F5F7F4F47
:1007F000820F931F0E94A60AF801F582E482DECFE1
:10080000158214826CE271E0C9010E94A60AD6CF5B
:10081000C8010F900F90DF91CF911F910F91FF9022
:10082000EF9008951F920F920FB60F9211242F93FD
:100830003F934F935F936F937F938F939F93AF9368
:10084000BF93EF93FF938DEE91E00E944501FF91DE
:10085000EF91BF91AF919F918F917F916F915F9138
:100860004F913F912F910F900FBE0F901F901895B1
:100870001F920F920FB60F9211242F938F939F9375
:10088000EF93FF93E091FD01F091FE018081E091F3
:100890000302F091040282FD1BC090818091060248
:1008A0008F5F8F7320910702821741F0E09106025B
:1008B000F0E0E351FE4F958F80930602FF91EF9198
:1008C0009F918F912F910F900FBE0F901F901895B1
:1008D0008081F4CF1F920F920FB60F9211242F93A5
:1008E0003F938F939F93AF93BF938091E901909132
:1008F000EA01A091EB01B091EC013091E20123E01B
:10090000230F2D3758F50196A11DB11D2093E2014B
:100910008093E9019093EA01A093EB01B093EC017D
:100920008091E3019091E401A091E501B091E6018D
:100930000196A11DB11D8093E3019093E401A09362
:10094000E501B093E601BF91AF919F918F913F91E7
:100950002F910F900FBE0F901F90189526E8230F30
:100960000296A11DB11DD2CFCF93DF93CDB7DEB7D5
:100970002E970FB6F894DEBF0FBECDBF789484B526
:10098000826084BD84B5816084BD85B5826085BD8B
:1009900085B5816085BD80916E00816080936E0019
:1009A000109281008091810082608093810080910B
:1009B00081008160809381008091800081608093BC
:1009C00080008091B10084608093B1008091B0007C
:1009D00081608093B00080917A00846080937A0077
:1009E00080917A00826080937A0080917A008160A1
:1009F00080937A0080917A00806880937A001092C8
:100A0000C100E091FD01F091FE0182E08083E09160
:100A1000F901F091FA011082E091FB01F091FC01E3
:100A20008FEC808310920502E0910102F0910202A6
:100A300086E08083E091FF01F09100028081806177
:100A40008083E091FF01F0910002808188608083C3
:100A5000E091FF01F0910002808180688083E09145
:100A6000FF01F091000280818F7D8083AEE1B1E0D3
:100A70008D919D919927FC01EC55FF4F2491805752
:100A80009F4FFC0184918823A1F090E0880F991F6B
:100A9000FC01EA57FF4F45915491FC01E458FF4F88
:100AA000859194918FB7F894FA019081922B90835D
:100AB0008FBFF1E0AA32BF07D9F680E480937C00B3
:100AC00080917A00806480937A0080917A0086FD1C
:100AD000FCCF8091780060917900762F682F072EE7
:100AE000000C880B990B611571058105910511F0BA
:100AF0000E94D407CE0101967C0126E0422E512CA3
:100B0000612C712C8091E7019091E8018130910571
:100B100089F18230910509F41DC1892B01F583E427
:100B200091E00E94670362E370E085E090E00E943C
:100B3000B1020E94780282E691E00E946703C70139
:100B40000E94A503C7010E9475038CE291E00E94F8
:100B50006703E1E0F0E0F093E801E093E701E0E013
:100B6000F0E0EF2B79F20E943101882359F20E94C4
:100B70000000C8CF8AE891E00E94F5026091000170
:100B800070910101072E000C880B990B97FF97C0FD
:100B90000E9446038AE291E00E94F50282E991E018
:100BA0000E9467030E94780264EF71E080E090E0A9
:100BB0000E9445028EE991E00E9467030E9478023C
:100BC00064EF71E080E090E00E94450283EA91E0EA
:100BD0000E9467038CE291E00E946703209000016D
:100BE00030900101220C331C1A8619861C861B8644
:100BF0001E861D8670E060E0CE0109960E947D038E
:100C000029853A8581115FC02115310519F0C90187
:100C10000E944E091A8619861E861D861C861B8612
:100C2000D12CC12C2C143D040CF455C00E94850716
:100C3000A30192010E9412084B01CB0101964AE0E8
:100C4000B7010E94DD07F70101900020E9F7319715
:100C5000EE19FF09B1F00D851E850E0F1F1FB8019B
:100C6000CE0109960E947D03882359F029853A8593
:100C70008D859E85B701820F931F0E94A60A1E874D
:100C80000D87F401EE0FFF1FE25EFE4F108161E061
:100C9000812F0E94D40164EF71E080E090E00E9417
:100CA000450260E0812F0E94D40164EF71E080E092
:100CB00090E00E944502FFEFCF1ADF0AB3CF4AE06F
:100CC0000E94020367CF1E861D866CE271E0C90197
:100CD0000E94A60AA5CFC7010E94A5038CE291E05D
:100CE0000E9467032D813E818D859E8528173907D7
:100CF000A1F489819A8169857A85009709F457C0A2
:100D00006115710539F4232B09F45FC0FC01808162
:100D100090E058C00E949D0A55C085EB91E00E946A
:100D200067038CE291E00E94670369E170E085E06F
:100D300090E00E94B1020E94780264EF71E080E0CE
:100D400090E00E94450282E090E09093E801809359
:100D5000E7015AC081EC91E00E9467038BEC91E0BF
:100D60000E94F502609100017091010161507109CA
:100D7000072E000C880B990B97FF15C00E944603A5
:100D80008AED91E00E9467038CE291E00E94670384
:100D900069E170E08AE090E00E94B1021092E801FF
:100DA0001092E701DCCE4AE00E940203E9CF611510
:100DB000710559F0232B49F0FB01808190E091955A
:100DC00081959109892B09F0A8CF8091000190911C
:100DD0000101019690930101809300018CEA91E05A
:100DE0000E9467038CE291E00E94670362E370E077
:100DF00085E090E00E94B1020E94780264EF71E009
:100E000080E090E00E944502C7010E947503CE0178
:100E100009960E947503A3CEEDEEF1E013821282D3
:100E200088EE93E0A0E0B0E084839583A683B78347
:100E300080E191E09183808385EC90E095878487C1
:100E400084EC90E09787868780EC90E0918B808B94
:100E500081EC90E0938B828B82EC90E0958B848B7D
:100E600086EC90E0978B868B118E128E138E148EEB
:100E700008958F929F92AF92BF92CF92DF92EF929E
:100E8000FF92CF93DF93EC01688179818A819B8106
:100E9000611571058105910521F464E279ED8BE519
:100EA00097E02DE133EF41E050E00E941208490144
:100EB0005A019B01AC01A7EAB1E40E9431086B0121
:100EC0007C01ACEEB4EFA50194010E943F08C60E70
:100ED000D71EE81EF91EF7FE06C081E0C81AD10829
:100EE000E10880E8F80AC882D982EA82FB82C70159
:100EF000B6019F77DF91CF91FF90EF90DF90CF9079
:100F0000BF90AF909F908F9008958F929F92AF92D5
:100F1000BF92CF92DF92EF92FF92609102017091A7
:100F2000030180910401909105016115710581050E
:100F3000910521F464E279ED8BE597E02DE133EF43
:100F400041E050E00E94120849015A019B01AC01A6
:100F5000A7EAB1E40E9431086B017C01ACEEB4EF6A
:100F6000A50194010E943F08C60ED71EE81EF91E77
:100F7000F7FE06C081E0C81AD108E10880E8F80A47
:100F8000C0920201D0920301E0920401F0920501A7
:100F9000C701B6019F77FF90EF90DF90CF90BF9091
:100FA000AF909F908F90089560930201709303011A
:100FB00080930401909305010895BB274A3031F4D2
:100FC000992322F4BDE2909581959F4F0C94E907F7
:100FD000BB27FB015527AA27880F991FAA1FA41713
:100FE00010F0A41B83955051B9F7A05DAA3308F007
:100FF000A95DA193009779F7B111B1931192CB013B
:101000000C940208DC01FC01672F71917723E1F752
:10101000329704C07C916D9370836291AE17BF07C5
:10102000C8F30895052E97FB1EF400940E9429082A
:1010300057FD07D00E947B0807FC03D04EF40C94A8
:10104000290850954095309521953F4F4F4F5F4F60
:10105000089590958095709561957F4F8F4F9F4F24
:1010600008950E949D08A59F900DB49F900DA49F88
:10107000800D911D11240895B7FF0C9431080E9432
:101080003108821B930B08952F923F924F925F92EB
:101090006F927F928F929F92AF92BF92CF92DF9288
:1010A000EF92FF920F931F93CF93DF93CDB7DEB7ED
:1010B000CA1BDB0B0FB6F894DEBF0FBECDBF099481
:1010C0002A88398848885F846E847D848C849B84D8
:1010D000AA84B984C884DF80EE80FD800C811B81E6
:1010E000AA81B981CE0FD11D0FB6F894DEBF0FBE15
:1010F000CDBFED010895A1E21A2EAA1BBB1BFD0175
:101100000DC0AA1FBB1FEE1FFF1FA217B307E407E6
:10111000F50720F0A21BB30BE40BF50B661F771F3E
:10112000881F991F1A9469F760957095809590951E
:101130009B01AC01BD01CF010895A29FB001B39FF7
:10114000C001A39F700D811D1124911DB29F700DD0
:10115000811D1124911D0895EE0FFF1F0590F4913C
:10116000E02D09940F931F93CF93DF938230910565
:1011700010F482E090E0E0918C02F0918D0230E07A
:1011800020E0B0E0A0E0309799F42115310509F492
:101190004AC0281B390B24303105D8F58A819B8140
:1011A0006115710589F1FB0193838283FE0111C0F2
:1011B000408151810281138148175907E0F0481797
:1011C000590799F4109761F012960C9312971396A1
:1011D0001C933296CF01DF91CF911F910F9108950B
:1011E00000938C0210938D02F4CF2115310551F03C
:1011F0004217530738F0A901DB019A01BD01DF0155
:10120000F801C1CFEF01F9CF90938D0280938C024A
:10121000CDCFFE01E20FF31F81939193225031094C
:1012200039832883D7CF20918A0230918B02232BD8
:1012300041F4209108013091090130938B022093F1
:101240008A0220910601309107012115310541F4F0
:101250002DB73EB740910A0150910B01241B350B6D
:10126000E0918A02F0918B02E217F307A0F42E1BA3
:101270003F0B2817390778F0AC014E5F5F4F2417FA
:10128000350748F04E0F5F1F50938B0240938A0240
:10129000819391939FCFF0E0E0E09CCFCF93DF93D9
:1012A0000097E9F0FC01329713821282A0918C0220
:1012B000B0918D02ED0130E020E01097A1F4208183
:1012C0003181820F931F20918A0230918B0228175F
:1012D000390709F061C0F0938B02E0938A02DF9135
:1012E000CF910895EA01CE17DF07E8F54A815B81C7
:1012F0009E0141155105B1F7E901FB83EA8349914C
:101300005991C40FD51FEC17FD0761F480819181BD
:101310000296840F951FE9019983888382819381C6
:101320009B838A83F0E0E0E012968D919C91139765
:101330000097B9F52D913C911197CD010296820F3E
:10134000931F20918A0230918B022817390739F6B2
:10135000309751F510928D0210928C02B0938B024F
:10136000A0938A02BCCFD383C28340815181840F72
:10137000951FC817D90761F44E5F5F4F8881998127
:10138000480F591F518340838A819B8193838283B5
:101390002115310509F0B0CFF0938D02E0938C0256
:1013A0009ECFFD01DC01C0CF13821282D7CFB0E007
:1013B000A0E0EDEDF9E00C9446088C01009751F4A3
:1013C000CB010E94B2088C01C801CDB7DEB7E0E1C5
:1013D0000C946208FC01E60FF71F9C0122503109B2
:1013E000E217F30708F49DC0D901CD91DC91119764
:1013F000C617D70798F0C530D10530F3CE01049752
:101400008617970708F3C61BD70B2297C193D19372
:101410006D937C93CF010E944E09D6CF5B01AC1A2D
:10142000BD0A4C018C0E9D1EA0918C02B0918D02C4
:10143000512C412CF12CE12C109731F580918A022E
:1014400090918B028815990509F05CC046165706E5
:1014500008F058C08091060190910701009741F46F
:101460008DB79EB740910A0150910B01841B950BDB
:10147000E817F90708F055C0F0938B02E0938A0251
:10148000F90171836083A0CF8D919C911197129681
:101490006C90129713967C901397A815B90559F57F
:1014A0006C0142E0C40ED11CCA14DB0420F1AC0173
:1014B0004A195B09DA011296159780F062827382ED
:1014C00051834083D9016D937C93E114F10471F051
:1014D000D7011396FC93EE93129776CF22968C0F3A
:1014E0009D1FF90191838083F301EFCFF0938D026B
:1014F000E0938C0269CF4816590608F42C017D014F
:10150000D3019ACFCB010E94B2087C01009749F029
:10151000AE01B8010E94940AC8010E944E098701D9
:1015200053CF10E000E050CFFB01DC0102C001907E
:101530000D9241505040D8F70895FB01DC018D9188
:10154000019080190110D9F3990B0895FB01DC017A
:0E15500001900D920020E1F70895F894FFCF6E
:10155E0001000100000000008E028000000000006B
:10156E0067018700B400B4012501C300170107000D
:10157E00080009000A000B000C000D0A00496E73EA
:10158E006972612073756120726573706F73746117
:10159E003A200042656D2076696E646F20616F207F
:1015AE004A6F676F206461204D656DC3B3726961C8
:1015BE0021005072657373696F6E65207175616C71
:1015CE0071756572207465636C6120706172612043
:1015DE00636F6D65C3A7617221004EC3AD76656CF6
:1015EE0020004D656D6F72697A652E2E2E004F2E7E
:1015FE002E2E0050616472C3A36F2100436F72726E
:10160E0065746F21004572726F6F6F6F75203A2887
:10161E000047616D65206F76657200566F63C3AAD1
:10162E002061636572746F7520002056657A65734C
:02163E00210089
:00000001FF
